{"contracts/test/MockAggregator.sol":{"MockAggregator":{"abi":[{"inputs":[],"stateMutability":"nonpayable","type":"constructor"},{"inputs":[],"name":"latestRoundData","outputs":[{"internalType":"uint80","name":"","type":"uint80"},{"internalType":"int256","name":"","type":"int256"},{"internalType":"uint256","name":"","type":"uint256"},{"internalType":"uint256","name":"","type":"uint256"},{"internalType":"uint80","name":"","type":"uint80"}],"stateMutability":"view","type":"function"},{"inputs":[],"name":"s_answer","outputs":[{"internalType":"int256","name":"","type":"int256"}],"stateMutability":"view","type":"function"},{"inputs":[{"internalType":"int256","name":"answer","type":"int256"}],"name":"setLatestAnswer","outputs":[],"stateMutability":"nonpayable","type":"function"}],"devdoc":{"kind":"dev","methods":{},"version":1},"evm":{"bytecode":{"linkReferences":{},"object":"608060405234801561001057600080fd5b5061001d6251cb3c600055565b60ea8061002b6000396000f3fe6080604052348015600f57600080fd5b5060043610603c5760003560e01c806304ea97b0146041578063305da2db146053578063feaf968c14606e575b600080fd5b6051604c366004609c565b600055565b005b605b60005481565b6040519081526020015b60405180910390f35b60008054604080518381526020810192909252810182905260608101829052608081019190915260a0016065565b60006020828403121560ad57600080fd5b503591905056fea2646970667358221220ee31c150ddbba5da15f143d3528a5d5f053ec343d7b2750272c0290b2585eaa064736f6c634300080a0033","opcodes":"PUSH1 0x80 PUSH1 0x40 MSTORE CALLVALUE DUP1 ISZERO PUSH2 0x10 JUMPI PUSH1 0x0 DUP1 REVERT JUMPDEST POP PUSH2 0x1D PUSH3 0x51CB3C PUSH1 0x0 SSTORE JUMP JUMPDEST PUSH1 0xEA DUP1 PUSH2 0x2B PUSH1 0x0 CODECOPY PUSH1 0x0 RETURN INVALID PUSH1 0x80 PUSH1 0x40 MSTORE CALLVALUE DUP1 ISZERO PUSH1 0xF JUMPI PUSH1 0x0 DUP1 REVERT JUMPDEST POP PUSH1 0x4 CALLDATASIZE LT PUSH1 0x3C JUMPI PUSH1 0x0 CALLDATALOAD PUSH1 0xE0 SHR DUP1 PUSH4 0x4EA97B0 EQ PUSH1 0x41 JUMPI DUP1 PUSH4 0x305DA2DB EQ PUSH1 0x53 JUMPI DUP1 PUSH4 0xFEAF968C EQ PUSH1 0x6E JUMPI JUMPDEST PUSH1 0x0 DUP1 REVERT JUMPDEST PUSH1 0x51 PUSH1 0x4C CALLDATASIZE PUSH1 0x4 PUSH1 0x9C JUMP JUMPDEST PUSH1 0x0 SSTORE JUMP JUMPDEST STOP JUMPDEST PUSH1 0x5B PUSH1 0x0 SLOAD DUP2 JUMP JUMPDEST PUSH1 0x40 MLOAD SWAP1 DUP2 MSTORE PUSH1 0x20 ADD JUMPDEST PUSH1 0x40 MLOAD DUP1 SWAP2 SUB SWAP1 RETURN JUMPDEST PUSH1 0x0 DUP1 SLOAD PUSH1 0x40 DUP1 MLOAD DUP4 DUP2 MSTORE PUSH1 0x20 DUP2 ADD SWAP3 SWAP1 SWAP3 MSTORE DUP2 ADD DUP3 SWAP1 MSTORE PUSH1 0x60 DUP2 ADD DUP3 SWAP1 MSTORE PUSH1 0x80 DUP2 ADD SWAP2 SWAP1 SWAP2 MSTORE PUSH1 0xA0 ADD PUSH1 0x65 JUMP JUMPDEST PUSH1 0x0 PUSH1 0x20 DUP3 DUP5 SUB SLT ISZERO PUSH1 0xAD JUMPI PUSH1 0x0 DUP1 REVERT JUMPDEST POP CALLDATALOAD SWAP2 SWAP1 POP JUMP INVALID LOG2 PUSH5 0x6970667358 0x22 SLT KECCAK256 0xEE BALANCE 0xC1 POP 0xDD 0xBB 0xA5 0xDA ISZERO CALL NUMBER 0xD3 MSTORE DUP11 0x5D 0x5F SDIV RETURNDATACOPY 0xC3 NUMBER 0xD7 0xB2 PUSH22 0x272C0290B2585EAA064736F6C634300080A00330000 "},"gasEstimates":{"creation":{"codeDepositCost":"46800","executionCost":"22217","totalCost":"69017"},"external":{"latestRoundData()":"2395","s_answer()":"2284","setLatestAnswer(int256)":"22290"}},"methodIdentifiers":{"latestRoundData()":"feaf968c","s_answer()":"305da2db","setLatestAnswer(int256)":"04ea97b0"}},"storageLayout":{"storage":[{"astId":3716,"contract":"contracts/test/MockAggregator.sol:MockAggregator","label":"s_answer","offset":0,"slot":"0","type":"t_int256"}],"types":{"t_int256":{"encoding":"inplace","label":"int256","numberOfBytes":"32"}}},"userdoc":{"kind":"user","methods":{},"version":1}}}}