{
  "address": "0xB87A0c50fe66af2FB89CFc725e87676EE5AC85BF",
  "abi": [
    {
      "inputs": [
        {
          "internalType": "contract pTRYTokenInterface",
          "name": "_pTRYToken",
          "type": "address"
        },
        {
          "internalType": "address",
          "name": "_oracle",
          "type": "address"
        }
      ],
      "stateMutability": "nonpayable",
      "type": "constructor"
    },
    {
      "inputs": [],
      "name": "NotEnoughApproval",
      "type": "error"
    },
    {
      "inputs": [],
      "name": "NotUnderCollateralize",
      "type": "error"
    },
    {
      "anonymous": false,
      "inputs": [
        {
          "indexed": true,
          "internalType": "bytes32",
          "name": "role",
          "type": "bytes32"
        },
        {
          "indexed": true,
          "internalType": "bytes32",
          "name": "previousAdminRole",
          "type": "bytes32"
        },
        {
          "indexed": true,
          "internalType": "bytes32",
          "name": "newAdminRole",
          "type": "bytes32"
        }
      ],
      "name": "RoleAdminChanged",
      "type": "event"
    },
    {
      "anonymous": false,
      "inputs": [
        {
          "indexed": true,
          "internalType": "bytes32",
          "name": "role",
          "type": "bytes32"
        },
        {
          "indexed": true,
          "internalType": "address",
          "name": "account",
          "type": "address"
        },
        {
          "indexed": true,
          "internalType": "address",
          "name": "sender",
          "type": "address"
        }
      ],
      "name": "RoleGranted",
      "type": "event"
    },
    {
      "anonymous": false,
      "inputs": [
        {
          "indexed": true,
          "internalType": "bytes32",
          "name": "role",
          "type": "bytes32"
        },
        {
          "indexed": true,
          "internalType": "address",
          "name": "account",
          "type": "address"
        },
        {
          "indexed": true,
          "internalType": "address",
          "name": "sender",
          "type": "address"
        }
      ],
      "name": "RoleRevoked",
      "type": "event"
    },
    {
      "inputs": [],
      "name": "COLLATERAL_ADMIN_ROLE",
      "outputs": [
        {
          "internalType": "bytes32",
          "name": "",
          "type": "bytes32"
        }
      ],
      "stateMutability": "view",
      "type": "function"
    },
    {
      "inputs": [],
      "name": "DEFAULT_ADMIN_ROLE",
      "outputs": [
        {
          "internalType": "bytes32",
          "name": "",
          "type": "bytes32"
        }
      ],
      "stateMutability": "view",
      "type": "function"
    },
    {
      "inputs": [
        {
          "internalType": "uint256",
          "name": "amount",
          "type": "uint256"
        }
      ],
      "name": "burnPTRY",
      "outputs": [],
      "stateMutability": "nonpayable",
      "type": "function"
    },
    {
      "inputs": [],
      "name": "checkCollateralRatio",
      "outputs": [
        {
          "internalType": "uint256",
          "name": "collateralRatio_",
          "type": "uint256"
        }
      ],
      "stateMutability": "view",
      "type": "function"
    },
    {
      "inputs": [],
      "name": "checkLiquidation",
      "outputs": [
        {
          "internalType": "bool",
          "name": "",
          "type": "bool"
        }
      ],
      "stateMutability": "view",
      "type": "function"
    },
    {
      "inputs": [],
      "name": "getCollateralToken",
      "outputs": [
        {
          "internalType": "address",
          "name": "",
          "type": "address"
        }
      ],
      "stateMutability": "view",
      "type": "function"
    },
    {
      "inputs": [],
      "name": "getPTRYToken",
      "outputs": [
        {
          "internalType": "address",
          "name": "",
          "type": "address"
        }
      ],
      "stateMutability": "view",
      "type": "function"
    },
    {
      "inputs": [],
      "name": "getRate",
      "outputs": [
        {
          "internalType": "int256",
          "name": "answer_",
          "type": "int256"
        }
      ],
      "stateMutability": "view",
      "type": "function"
    },
    {
      "inputs": [
        {
          "internalType": "uint256",
          "name": "amount",
          "type": "uint256"
        }
      ],
      "name": "getRequiredCollateral",
      "outputs": [
        {
          "internalType": "uint256",
          "name": "reqCollateral_",
          "type": "uint256"
        }
      ],
      "stateMutability": "view",
      "type": "function"
    },
    {
      "inputs": [
        {
          "internalType": "bytes32",
          "name": "role",
          "type": "bytes32"
        }
      ],
      "name": "getRoleAdmin",
      "outputs": [
        {
          "internalType": "bytes32",
          "name": "",
          "type": "bytes32"
        }
      ],
      "stateMutability": "view",
      "type": "function"
    },
    {
      "inputs": [
        {
          "internalType": "bytes32",
          "name": "role",
          "type": "bytes32"
        },
        {
          "internalType": "address",
          "name": "account",
          "type": "address"
        }
      ],
      "name": "grantRole",
      "outputs": [],
      "stateMutability": "nonpayable",
      "type": "function"
    },
    {
      "inputs": [
        {
          "internalType": "bytes32",
          "name": "role",
          "type": "bytes32"
        },
        {
          "internalType": "address",
          "name": "account",
          "type": "address"
        }
      ],
      "name": "hasRole",
      "outputs": [
        {
          "internalType": "bool",
          "name": "",
          "type": "bool"
        }
      ],
      "stateMutability": "view",
      "type": "function"
    },
    {
      "inputs": [],
      "name": "liquidate",
      "outputs": [],
      "stateMutability": "nonpayable",
      "type": "function"
    },
    {
      "inputs": [
        {
          "internalType": "uint256",
          "name": "amount",
          "type": "uint256"
        }
      ],
      "name": "mintPTRY",
      "outputs": [],
      "stateMutability": "nonpayable",
      "type": "function"
    },
    {
      "inputs": [
        {
          "internalType": "bytes32",
          "name": "role",
          "type": "bytes32"
        },
        {
          "internalType": "address",
          "name": "account",
          "type": "address"
        }
      ],
      "name": "renounceRole",
      "outputs": [],
      "stateMutability": "nonpayable",
      "type": "function"
    },
    {
      "inputs": [
        {
          "internalType": "bytes32",
          "name": "role",
          "type": "bytes32"
        },
        {
          "internalType": "address",
          "name": "account",
          "type": "address"
        }
      ],
      "name": "revokeRole",
      "outputs": [],
      "stateMutability": "nonpayable",
      "type": "function"
    },
    {
      "inputs": [
        {
          "internalType": "uint8",
          "name": "_ratio",
          "type": "uint8"
        }
      ],
      "name": "setCollateralRatio",
      "outputs": [],
      "stateMutability": "nonpayable",
      "type": "function"
    },
    {
      "inputs": [
        {
          "internalType": "bytes4",
          "name": "interfaceId",
          "type": "bytes4"
        }
      ],
      "name": "supportsInterface",
      "outputs": [
        {
          "internalType": "bool",
          "name": "",
          "type": "bool"
        }
      ],
      "stateMutability": "view",
      "type": "function"
    },
    {
      "inputs": [],
      "name": "vault",
      "outputs": [
        {
          "internalType": "uint256",
          "name": "margin",
          "type": "uint256"
        },
        {
          "internalType": "uint256",
          "name": "dept",
          "type": "uint256"
        }
      ],
      "stateMutability": "view",
      "type": "function"
    }
  ],
  "transactionHash": "0x778a10bf97f1b8c49cc3970221c3db889ea5e44f2e9053631a2ca5a302e85dbe",
  "args": [
    "0x4e7503E837b8A4dEC275517767e37A8B381A7250",
    "0x6E56343E45190D2C467f7e828dbDA472D431a199"
  ],
  "numDeployments": 2,
  "solcInputHash": "8ddd6b160d72dffbb26d3b777978c7d2",
  "bytecode": "0x60e06040523480156200001157600080fd5b506040516200183a3803806200183a83398101604081905262000034916200015a565b73df1742fe5b0bfc12331d8eaec6b478dfdbd314646080526001600160a01b0382811660a052811660c0526200008b7f547d010821a032e6882de3d0b5a6208aa0b1b327b114249bfbf285c283bc4c8533620000a0565b50506003805460ff1916600a17905562000199565b6000828152602081815260408083206001600160a01b038516845290915290205460ff166200013d576000828152602081815260408083206001600160a01b03851684529091529020805460ff19166001179055620000fc3390565b6001600160a01b0316816001600160a01b0316837f2f8788117e7eff1d82e926ec794901d17c78024a50270940304540a733656f0d60405160405180910390a45b5050565b6001600160a01b03811681146200015757600080fd5b50565b600080604083850312156200016e57600080fd5b82516200017b8162000141565b60208401519092506200018e8162000141565b809150509250929050565b60805160a05160c051611639620002016000396000610c3e0152600081816102ff0152818161042801528181610523015281816108d3015281816109c20152610aaf01526000818161029d015281816105c80152818161070a015261081b01526116396000f3fe608060405234801561001057600080fd5b50600436106101515760003560e01c80634b01eb96116100cd5780639a7dc05111610081578063b07edba411610066578063b07edba4146102fd578063d547741f14610323578063fbfa77cf1461033657600080fd5b80639a7dc051146102e2578063a217fddf146102f557600080fd5b8063679aefce116100b2578063679aefce1461024f57806391d1485414610257578063964236631461029b57600080fd5b80634b01eb961461023f5780636422b1261461024757600080fd5b80631b23991a1161012457806328a070251161010957806328a07025146102115780632f2ff15d1461021957806336568abe1461022c57600080fd5b80631b23991a146101c7578063248a9ca3146101ee57600080fd5b806301ffc9a71461015657806305a73d401461017e57806309cd4e261461019357806317a8277e146101b4575b600080fd5b610169610164366004611227565b610359565b60405190151581526020015b60405180910390f35b61019161018c366004611269565b6103f2565b005b6101a66101a1366004611269565b610684565b604051908152602001610175565b6101916101c2366004611269565b6106b1565b6101a67f547d010821a032e6882de3d0b5a6208aa0b1b327b114249bfbf285c283bc4c8581565b6101a66101fc366004611269565b60009081526020819052604090206001015490565b610191610948565b610191610227366004611282565b610af3565b61019161023a366004611282565b610b1d565b6101a6610bd5565b610169610c0f565b6101a6610c3a565b610169610265366004611282565b60009182526020828152604080842073ffffffffffffffffffffffffffffffffffffffff93909316845291905290205460ff1690565b7f00000000000000000000000000000000000000000000000000000000000000005b60405173ffffffffffffffffffffffffffffffffffffffff9091168152602001610175565b6101916102f03660046112cb565b610cd5565b6101a6600081565b7f00000000000000000000000000000000000000000000000000000000000000006102bd565b610191610331366004611282565b610d34565b600154600254610344919082565b60408051928352602083019190915201610175565b60007fffffffff0000000000000000000000000000000000000000000000000000000082167f7965db0b0000000000000000000000000000000000000000000000000000000014806103ec57507f01ffc9a7000000000000000000000000000000000000000000000000000000007fffffffff000000000000000000000000000000000000000000000000000000008316145b92915050565b6040517fdd62ed3e00000000000000000000000000000000000000000000000000000000815233600482015230602482015281907f000000000000000000000000000000000000000000000000000000000000000073ffffffffffffffffffffffffffffffffffffffff169063dd62ed3e90604401602060405180830381865afa158015610484573d6000803e3d6000fd5b505050506040513d601f19601f820116820180604052508101906104a891906112ee565b10156104e0576040517f8f3d86bc00000000000000000000000000000000000000000000000000000000815260040160405180910390fd5b60006104eb82610684565b6040517f79cc6790000000000000000000000000000000000000000000000000000000008152336004820152602481018490529091507f000000000000000000000000000000000000000000000000000000000000000073ffffffffffffffffffffffffffffffffffffffff16906379cc6790906044015b600060405180830381600087803b15801561057d57600080fd5b505af1158015610591573d6000803e3d6000fd5b50506040517fa9059cbb000000000000000000000000000000000000000000000000000000008152336004820152602481018490527f000000000000000000000000000000000000000000000000000000000000000073ffffffffffffffffffffffffffffffffffffffff16925063a9059cbb91506044016020604051808303816000875af1158015610628573d6000803e3d6000fd5b505050506040513d601f19601f8201168201806040525081019061064c9190611307565b50816001800160008282546106619190611358565b90915550506001805482919060009061067b908490611358565b90915550505050565b60008061068f610c3a565b90506305f5e1006106a0828561136f565b6106aa91906113ac565b9392505050565b60006106bc82610684565b6040517fdd62ed3e000000000000000000000000000000000000000000000000000000008152336004820152306024820152909150819073ffffffffffffffffffffffffffffffffffffffff7f0000000000000000000000000000000000000000000000000000000000000000169063dd62ed3e90604401602060405180830381865afa158015610751573d6000803e3d6000fd5b505050506040513d601f19601f8201168201806040525081019061077591906112ee565b10156107ad576040517f8f3d86bc00000000000000000000000000000000000000000000000000000000815260040160405180910390fd5b816001800160008282546107c191906113e7565b9091555050600180548291906000906107db9084906113e7565b90915550506040517f23b872dd000000000000000000000000000000000000000000000000000000008152336004820152306024820152604481018290527f000000000000000000000000000000000000000000000000000000000000000073ffffffffffffffffffffffffffffffffffffffff16906323b872dd906064016020604051808303816000875af1158015610879573d6000803e3d6000fd5b505050506040513d601f19601f8201168201806040525081019061089d9190611307565b506040517f40c10f19000000000000000000000000000000000000000000000000000000008152336004820152602481018390527f000000000000000000000000000000000000000000000000000000000000000073ffffffffffffffffffffffffffffffffffffffff16906340c10f1990604401600060405180830381600087803b15801561092c57600080fd5b505af1158015610940573d6000803e3d6000fd5b505050505050565b610950610c0f565b610986576040517f90f86ab000000000000000000000000000000000000000000000000000000000815260040160405180910390fd5b6002546001546040517fdd62ed3e00000000000000000000000000000000000000000000000000000000815233600482015230602482015282907f000000000000000000000000000000000000000000000000000000000000000073ffffffffffffffffffffffffffffffffffffffff169063dd62ed3e90604401602060405180830381865afa158015610a1e573d6000803e3d6000fd5b505050506040513d601f19601f82011682018060405250810190610a4291906112ee565b1015610a7a576040517f8f3d86bc00000000000000000000000000000000000000000000000000000000815260040160405180910390fd5b6040517f79cc6790000000000000000000000000000000000000000000000000000000008152336004820152602481018390527f000000000000000000000000000000000000000000000000000000000000000073ffffffffffffffffffffffffffffffffffffffff16906379cc679090604401610563565b600082815260208190526040902060010154610b0e81610d59565b610b188383610d66565b505050565b73ffffffffffffffffffffffffffffffffffffffff81163314610bc7576040517f08c379a000000000000000000000000000000000000000000000000000000000815260206004820152602f60248201527f416363657373436f6e74726f6c3a2063616e206f6e6c792072656e6f756e636560448201527f20726f6c657320666f722073656c66000000000000000000000000000000000060648201526084015b60405180910390fd5b610bd18282610e56565b5050565b60015460025460009190610be890610684565b600154610bf59190611358565b610c0090606461136f565b610c0a91906113ac565b905090565b600080610c1a610bd5565b60035490915060ff16811015610c3257600191505090565b600091505090565b60007f000000000000000000000000000000000000000000000000000000000000000073ffffffffffffffffffffffffffffffffffffffff1663feaf968c6040518163ffffffff1660e01b815260040160a060405180830381865afa158015610ca7573d6000803e3d6000fd5b505050506040513d601f19601f82011682018060405250810190610ccb919061141e565b5091949350505050565b7f547d010821a032e6882de3d0b5a6208aa0b1b327b114249bfbf285c283bc4c85610cff81610d59565b50600380547fffffffffffffffffffffffffffffffffffffffffffffffffffffffffffffff001660ff92909216919091179055565b600082815260208190526040902060010154610d4f81610d59565b610b188383610e56565b610d638133610f0d565b50565b60008281526020818152604080832073ffffffffffffffffffffffffffffffffffffffff8516845290915290205460ff16610bd15760008281526020818152604080832073ffffffffffffffffffffffffffffffffffffffff85168452909152902080547fffffffffffffffffffffffffffffffffffffffffffffffffffffffffffffff00166001179055610df83390565b73ffffffffffffffffffffffffffffffffffffffff168173ffffffffffffffffffffffffffffffffffffffff16837f2f8788117e7eff1d82e926ec794901d17c78024a50270940304540a733656f0d60405160405180910390a45050565b60008281526020818152604080832073ffffffffffffffffffffffffffffffffffffffff8516845290915290205460ff1615610bd15760008281526020818152604080832073ffffffffffffffffffffffffffffffffffffffff8516808552925280832080547fffffffffffffffffffffffffffffffffffffffffffffffffffffffffffffff0016905551339285917ff6391f5c32d9c69d2a47ea670b442974b53935d1edc7fd64eb21e047a839171b9190a45050565b60008281526020818152604080832073ffffffffffffffffffffffffffffffffffffffff8516845290915290205460ff16610bd157610f4b81610fc5565b610f56836020610fe4565b604051602001610f6792919061149e565b604080517fffffffffffffffffffffffffffffffffffffffffffffffffffffffffffffffe0818403018152908290527f08c379a0000000000000000000000000000000000000000000000000000000008252610bbe9160040161151f565b60606103ec73ffffffffffffffffffffffffffffffffffffffff831660145b60606000610ff383600261136f565b610ffe9060026113e7565b67ffffffffffffffff81111561101657611016611570565b6040519080825280601f01601f191660200182016040528015611040576020820181803683370190505b5090507f3000000000000000000000000000000000000000000000000000000000000000816000815181106110775761107761159f565b60200101907effffffffffffffffffffffffffffffffffffffffffffffffffffffffffffff1916908160001a9053507f7800000000000000000000000000000000000000000000000000000000000000816001815181106110da576110da61159f565b60200101907effffffffffffffffffffffffffffffffffffffffffffffffffffffffffffff1916908160001a905350600061111684600261136f565b6111219060016113e7565b90505b60018111156111be577f303132333435363738396162636465660000000000000000000000000000000085600f16601081106111625761116261159f565b1a60f81b8282815181106111785761117861159f565b60200101907effffffffffffffffffffffffffffffffffffffffffffffffffffffffffffff1916908160001a90535060049490941c936111b7816115ce565b9050611124565b5083156106aa576040517f08c379a000000000000000000000000000000000000000000000000000000000815260206004820181905260248201527f537472696e67733a20686578206c656e67746820696e73756666696369656e746044820152606401610bbe565b60006020828403121561123957600080fd5b81357fffffffff00000000000000000000000000000000000000000000000000000000811681146106aa57600080fd5b60006020828403121561127b57600080fd5b5035919050565b6000806040838503121561129557600080fd5b82359150602083013573ffffffffffffffffffffffffffffffffffffffff811681146112c057600080fd5b809150509250929050565b6000602082840312156112dd57600080fd5b813560ff811681146106aa57600080fd5b60006020828403121561130057600080fd5b5051919050565b60006020828403121561131957600080fd5b815180151581146106aa57600080fd5b7f4e487b7100000000000000000000000000000000000000000000000000000000600052601160045260246000fd5b60008282101561136a5761136a611329565b500390565b6000817fffffffffffffffffffffffffffffffffffffffffffffffffffffffffffffffff04831182151516156113a7576113a7611329565b500290565b6000826113e2577f4e487b7100000000000000000000000000000000000000000000000000000000600052601260045260246000fd5b500490565b600082198211156113fa576113fa611329565b500190565b805169ffffffffffffffffffff8116811461141957600080fd5b919050565b600080600080600060a0868803121561143657600080fd5b61143f866113ff565b9450602086015193506040860151925060608601519150611462608087016113ff565b90509295509295909350565b60005b83811015611489578181015183820152602001611471565b83811115611498576000848401525b50505050565b7f416363657373436f6e74726f6c3a206163636f756e74200000000000000000008152600083516114d681601785016020880161146e565b7f206973206d697373696e6720726f6c6520000000000000000000000000000000601791840191820152835161151381602884016020880161146e565b01602801949350505050565b602081526000825180602084015261153e81604085016020870161146e565b601f017fffffffffffffffffffffffffffffffffffffffffffffffffffffffffffffffe0169190910160400192915050565b7f4e487b7100000000000000000000000000000000000000000000000000000000600052604160045260246000fd5b7f4e487b7100000000000000000000000000000000000000000000000000000000600052603260045260246000fd5b6000816115dd576115dd611329565b507fffffffffffffffffffffffffffffffffffffffffffffffffffffffffffffffff019056fea2646970667358221220bb1a443bb16dd4a042ca4b41888ff2958abb6f4f59d7921b2e910fffcdf4c2ce64736f6c634300080a0033",
  "devdoc": {
    "kind": "dev",
    "methods": {
      "getRoleAdmin(bytes32)": {
        "details": "Returns the admin role that controls `role`. See {grantRole} and {revokeRole}. To change a role's admin, use {_setRoleAdmin}."
      },
      "grantRole(bytes32,address)": {
        "details": "Grants `role` to `account`. If `account` had not been already granted `role`, emits a {RoleGranted} event. Requirements: - the caller must have ``role``'s admin role. May emit a {RoleGranted} event."
      },
      "hasRole(bytes32,address)": {
        "details": "Returns `true` if `account` has been granted `role`."
      },
      "mintPTRY(uint256)": {
        "details": "Mint pTRY token",
        "params": {
          "amount": "requested amount to mint"
        }
      },
      "renounceRole(bytes32,address)": {
        "details": "Revokes `role` from the calling account. Roles are often managed via {grantRole} and {revokeRole}: this function's purpose is to provide a mechanism for accounts to lose their privileges if they are compromised (such as when a trusted device is misplaced). If the calling account had been revoked `role`, emits a {RoleRevoked} event. Requirements: - the caller must be `account`. May emit a {RoleRevoked} event."
      },
      "revokeRole(bytes32,address)": {
        "details": "Revokes `role` from `account`. If `account` had been granted `role`, emits a {RoleRevoked} event. Requirements: - the caller must have ``role``'s admin role. May emit a {RoleRevoked} event."
      },
      "supportsInterface(bytes4)": {
        "details": "See {IERC165-supportsInterface}."
      }
    },
    "version": 1
  },
  "userdoc": {
    "kind": "user",
    "methods": {
      "mintPTRY(uint256)": {
        "notice": "Only acceptable collateral is DAI"
      }
    },
    "version": 1
  },
  "storageLayout": {
    "storage": [
      {
        "astId": 70,
        "contract": "contracts/LendingPool.sol:LendingPool",
        "label": "_roles",
        "offset": 0,
        "slot": "0",
        "type": "t_mapping(t_bytes32,t_struct(RoleData)65_storage)"
      },
      {
        "astId": 3258,
        "contract": "contracts/LendingPool.sol:LendingPool",
        "label": "vault",
        "offset": 0,
        "slot": "1",
        "type": "t_struct(Vault)3255_storage"
      },
      {
        "astId": 3260,
        "contract": "contracts/LendingPool.sol:LendingPool",
        "label": "s_minCollateralRatio",
        "offset": 0,
        "slot": "3",
        "type": "t_uint8"
      }
    ],
    "types": {
      "t_address": {
        "encoding": "inplace",
        "label": "address",
        "numberOfBytes": "20"
      },
      "t_bool": {
        "encoding": "inplace",
        "label": "bool",
        "numberOfBytes": "1"
      },
      "t_bytes32": {
        "encoding": "inplace",
        "label": "bytes32",
        "numberOfBytes": "32"
      },
      "t_mapping(t_address,t_bool)": {
        "encoding": "mapping",
        "key": "t_address",
        "label": "mapping(address => bool)",
        "numberOfBytes": "32",
        "value": "t_bool"
      },
      "t_mapping(t_bytes32,t_struct(RoleData)65_storage)": {
        "encoding": "mapping",
        "key": "t_bytes32",
        "label": "mapping(bytes32 => struct AccessControl.RoleData)",
        "numberOfBytes": "32",
        "value": "t_struct(RoleData)65_storage"
      },
      "t_struct(RoleData)65_storage": {
        "encoding": "inplace",
        "label": "struct AccessControl.RoleData",
        "members": [
          {
            "astId": 62,
            "contract": "contracts/LendingPool.sol:LendingPool",
            "label": "members",
            "offset": 0,
            "slot": "0",
            "type": "t_mapping(t_address,t_bool)"
          },
          {
            "astId": 64,
            "contract": "contracts/LendingPool.sol:LendingPool",
            "label": "adminRole",
            "offset": 0,
            "slot": "1",
            "type": "t_bytes32"
          }
        ],
        "numberOfBytes": "64"
      },
      "t_struct(Vault)3255_storage": {
        "encoding": "inplace",
        "label": "struct LendingPool.Vault",
        "members": [
          {
            "astId": 3252,
            "contract": "contracts/LendingPool.sol:LendingPool",
            "label": "margin",
            "offset": 0,
            "slot": "0",
            "type": "t_uint256"
          },
          {
            "astId": 3254,
            "contract": "contracts/LendingPool.sol:LendingPool",
            "label": "dept",
            "offset": 0,
            "slot": "1",
            "type": "t_uint256"
          }
        ],
        "numberOfBytes": "64"
      },
      "t_uint256": {
        "encoding": "inplace",
        "label": "uint256",
        "numberOfBytes": "32"
      },
      "t_uint8": {
        "encoding": "inplace",
        "label": "uint8",
        "numberOfBytes": "1"
      }
    }
  }
}