{
  "address": "0xA43c80D96B8f4c5349BcAE4C640d2dd94BAb89Ef",
  "abi": [
    {
      "inputs": [
        {
          "internalType": "contract pTRYTokenInterface",
          "name": "_pTRYToken",
          "type": "address"
        },
        {
          "internalType": "address",
          "name": "_oracle",
          "type": "address"
        }
      ],
      "stateMutability": "nonpayable",
      "type": "constructor"
    },
    {
      "inputs": [],
      "name": "NotEnoughApproval",
      "type": "error"
    },
    {
      "inputs": [],
      "name": "NotUnderCollateralize",
      "type": "error"
    },
    {
      "anonymous": false,
      "inputs": [
        {
          "indexed": true,
          "internalType": "bytes32",
          "name": "role",
          "type": "bytes32"
        },
        {
          "indexed": true,
          "internalType": "bytes32",
          "name": "previousAdminRole",
          "type": "bytes32"
        },
        {
          "indexed": true,
          "internalType": "bytes32",
          "name": "newAdminRole",
          "type": "bytes32"
        }
      ],
      "name": "RoleAdminChanged",
      "type": "event"
    },
    {
      "anonymous": false,
      "inputs": [
        {
          "indexed": true,
          "internalType": "bytes32",
          "name": "role",
          "type": "bytes32"
        },
        {
          "indexed": true,
          "internalType": "address",
          "name": "account",
          "type": "address"
        },
        {
          "indexed": true,
          "internalType": "address",
          "name": "sender",
          "type": "address"
        }
      ],
      "name": "RoleGranted",
      "type": "event"
    },
    {
      "anonymous": false,
      "inputs": [
        {
          "indexed": true,
          "internalType": "bytes32",
          "name": "role",
          "type": "bytes32"
        },
        {
          "indexed": true,
          "internalType": "address",
          "name": "account",
          "type": "address"
        },
        {
          "indexed": true,
          "internalType": "address",
          "name": "sender",
          "type": "address"
        }
      ],
      "name": "RoleRevoked",
      "type": "event"
    },
    {
      "inputs": [],
      "name": "COLLATERAL_ADMIN_ROLE",
      "outputs": [
        {
          "internalType": "bytes32",
          "name": "",
          "type": "bytes32"
        }
      ],
      "stateMutability": "view",
      "type": "function"
    },
    {
      "inputs": [],
      "name": "DEFAULT_ADMIN_ROLE",
      "outputs": [
        {
          "internalType": "bytes32",
          "name": "",
          "type": "bytes32"
        }
      ],
      "stateMutability": "view",
      "type": "function"
    },
    {
      "inputs": [
        {
          "internalType": "uint256",
          "name": "amount",
          "type": "uint256"
        }
      ],
      "name": "burnPTRY",
      "outputs": [],
      "stateMutability": "nonpayable",
      "type": "function"
    },
    {
      "inputs": [],
      "name": "checkCollateralRatio",
      "outputs": [
        {
          "internalType": "uint256",
          "name": "collateralRatio_",
          "type": "uint256"
        }
      ],
      "stateMutability": "view",
      "type": "function"
    },
    {
      "inputs": [],
      "name": "checkLiquidation",
      "outputs": [
        {
          "internalType": "bool",
          "name": "",
          "type": "bool"
        }
      ],
      "stateMutability": "view",
      "type": "function"
    },
    {
      "inputs": [],
      "name": "getCollateralToken",
      "outputs": [
        {
          "internalType": "address",
          "name": "",
          "type": "address"
        }
      ],
      "stateMutability": "view",
      "type": "function"
    },
    {
      "inputs": [],
      "name": "getPTRYToken",
      "outputs": [
        {
          "internalType": "address",
          "name": "",
          "type": "address"
        }
      ],
      "stateMutability": "view",
      "type": "function"
    },
    {
      "inputs": [],
      "name": "getRate",
      "outputs": [
        {
          "internalType": "int256",
          "name": "answer_",
          "type": "int256"
        }
      ],
      "stateMutability": "view",
      "type": "function"
    },
    {
      "inputs": [
        {
          "internalType": "bytes32",
          "name": "role",
          "type": "bytes32"
        }
      ],
      "name": "getRoleAdmin",
      "outputs": [
        {
          "internalType": "bytes32",
          "name": "",
          "type": "bytes32"
        }
      ],
      "stateMutability": "view",
      "type": "function"
    },
    {
      "inputs": [
        {
          "internalType": "bytes32",
          "name": "role",
          "type": "bytes32"
        },
        {
          "internalType": "address",
          "name": "account",
          "type": "address"
        }
      ],
      "name": "grantRole",
      "outputs": [],
      "stateMutability": "nonpayable",
      "type": "function"
    },
    {
      "inputs": [
        {
          "internalType": "bytes32",
          "name": "role",
          "type": "bytes32"
        },
        {
          "internalType": "address",
          "name": "account",
          "type": "address"
        }
      ],
      "name": "hasRole",
      "outputs": [
        {
          "internalType": "bool",
          "name": "",
          "type": "bool"
        }
      ],
      "stateMutability": "view",
      "type": "function"
    },
    {
      "inputs": [],
      "name": "liquidate",
      "outputs": [],
      "stateMutability": "nonpayable",
      "type": "function"
    },
    {
      "inputs": [
        {
          "internalType": "uint256",
          "name": "amount",
          "type": "uint256"
        }
      ],
      "name": "mintPTRY",
      "outputs": [],
      "stateMutability": "nonpayable",
      "type": "function"
    },
    {
      "inputs": [
        {
          "internalType": "bytes32",
          "name": "role",
          "type": "bytes32"
        },
        {
          "internalType": "address",
          "name": "account",
          "type": "address"
        }
      ],
      "name": "renounceRole",
      "outputs": [],
      "stateMutability": "nonpayable",
      "type": "function"
    },
    {
      "inputs": [
        {
          "internalType": "bytes32",
          "name": "role",
          "type": "bytes32"
        },
        {
          "internalType": "address",
          "name": "account",
          "type": "address"
        }
      ],
      "name": "revokeRole",
      "outputs": [],
      "stateMutability": "nonpayable",
      "type": "function"
    },
    {
      "inputs": [
        {
          "internalType": "uint8",
          "name": "_ratio",
          "type": "uint8"
        }
      ],
      "name": "setCollateralRatio",
      "outputs": [],
      "stateMutability": "nonpayable",
      "type": "function"
    },
    {
      "inputs": [
        {
          "internalType": "bytes4",
          "name": "interfaceId",
          "type": "bytes4"
        }
      ],
      "name": "supportsInterface",
      "outputs": [
        {
          "internalType": "bool",
          "name": "",
          "type": "bool"
        }
      ],
      "stateMutability": "view",
      "type": "function"
    },
    {
      "inputs": [],
      "name": "vault",
      "outputs": [
        {
          "internalType": "uint256",
          "name": "margin",
          "type": "uint256"
        },
        {
          "internalType": "uint256",
          "name": "dept",
          "type": "uint256"
        }
      ],
      "stateMutability": "view",
      "type": "function"
    }
  ],
  "transactionHash": "0x37382f76c18160ec03ef8d932e3cda7508688085dfa1d490fb6a290cb7dce04e",
  "args": [
    "0x4e7503E837b8A4dEC275517767e37A8B381A7250",
    "0x6E56343E45190D2C467f7e828dbDA472D431a199"
  ],
  "numDeployments": 1,
  "solcInputHash": "f85305d19eefdc4a4e4f504a59480b05",
  "bytecode": "0x60e06040523480156200001157600080fd5b506040516200180c3803806200180c83398101604081905262000034916200015a565b73df1742fe5b0bfc12331d8eaec6b478dfdbd314646080526001600160a01b0382811660a052811660c0526200008b7f547d010821a032e6882de3d0b5a6208aa0b1b327b114249bfbf285c283bc4c8533620000a0565b50506003805460ff1916600a17905562000199565b6000828152602081815260408083206001600160a01b038516845290915290205460ff166200013d576000828152602081815260408083206001600160a01b03851684529091529020805460ff19166001179055620000fc3390565b6001600160a01b0316816001600160a01b0316837f2f8788117e7eff1d82e926ec794901d17c78024a50270940304540a733656f0d60405160405180910390a45b5050565b6001600160a01b03811681146200015757600080fd5b50565b600080604083850312156200016e57600080fd5b82516200017b8162000141565b60208401519092506200018e8162000141565b809150509250929050565b60805160a05160c05161160b620002016000396000610be30152600081816102d1015281816103fa015281816104f501528181610878015281816109670152610a5401526000818161026f0152818161059a015281816106af01526107c0015261160b6000f3fe608060405234801561001057600080fd5b50600436106101365760003560e01c80636422b126116100b25780639a7dc05111610081578063b07edba411610066578063b07edba4146102cf578063d547741f146102f5578063fbfa77cf1461030857600080fd5b80639a7dc051146102b4578063a217fddf146102c757600080fd5b80636422b12614610219578063679aefce1461022157806391d1485414610229578063964236631461026d57600080fd5b8063248a9ca3116101095780632f2ff15d116100ee5780632f2ff15d146101eb57806336568abe146101fe5780634b01eb961461021157600080fd5b8063248a9ca3146101c057806328a07025146101e357600080fd5b806301ffc9a71461013b57806305a73d401461016357806317a8277e146101785780631b23991a1461018b575b600080fd5b61014e6101493660046111f9565b61032b565b60405190151581526020015b60405180910390f35b61017661017136600461123b565b6103c4565b005b61017661018636600461123b565b610656565b6101b27f547d010821a032e6882de3d0b5a6208aa0b1b327b114249bfbf285c283bc4c8581565b60405190815260200161015a565b6101b26101ce36600461123b565b60009081526020819052604090206001015490565b6101766108ed565b6101766101f9366004611254565b610a98565b61017661020c366004611254565b610ac2565b6101b2610b7a565b61014e610bb4565b6101b2610bdf565b61014e610237366004611254565b60009182526020828152604080842073ffffffffffffffffffffffffffffffffffffffff93909316845291905290205460ff1690565b7f00000000000000000000000000000000000000000000000000000000000000005b60405173ffffffffffffffffffffffffffffffffffffffff909116815260200161015a565b6101766102c236600461129d565b610c7a565b6101b2600081565b7f000000000000000000000000000000000000000000000000000000000000000061028f565b610176610303366004611254565b610cd9565b600154600254610316919082565b6040805192835260208301919091520161015a565b60007fffffffff0000000000000000000000000000000000000000000000000000000082167f7965db0b0000000000000000000000000000000000000000000000000000000014806103be57507f01ffc9a7000000000000000000000000000000000000000000000000000000007fffffffff000000000000000000000000000000000000000000000000000000008316145b92915050565b6040517fdd62ed3e00000000000000000000000000000000000000000000000000000000815233600482015230602482015281907f000000000000000000000000000000000000000000000000000000000000000073ffffffffffffffffffffffffffffffffffffffff169063dd62ed3e90604401602060405180830381865afa158015610456573d6000803e3d6000fd5b505050506040513d601f19601f8201168201806040525081019061047a91906112c0565b10156104b2576040517f8f3d86bc00000000000000000000000000000000000000000000000000000000815260040160405180910390fd5b60006104bd82610cfe565b6040517f79cc6790000000000000000000000000000000000000000000000000000000008152336004820152602481018490529091507f000000000000000000000000000000000000000000000000000000000000000073ffffffffffffffffffffffffffffffffffffffff16906379cc6790906044015b600060405180830381600087803b15801561054f57600080fd5b505af1158015610563573d6000803e3d6000fd5b50506040517fa9059cbb000000000000000000000000000000000000000000000000000000008152336004820152602481018490527f000000000000000000000000000000000000000000000000000000000000000073ffffffffffffffffffffffffffffffffffffffff16925063a9059cbb91506044016020604051808303816000875af11580156105fa573d6000803e3d6000fd5b505050506040513d601f19601f8201168201806040525081019061061e91906112d9565b5081600180016000828254610633919061132a565b90915550506001805482919060009061064d90849061132a565b90915550505050565b600061066182610cfe565b6040517fdd62ed3e000000000000000000000000000000000000000000000000000000008152336004820152306024820152909150819073ffffffffffffffffffffffffffffffffffffffff7f0000000000000000000000000000000000000000000000000000000000000000169063dd62ed3e90604401602060405180830381865afa1580156106f6573d6000803e3d6000fd5b505050506040513d601f19601f8201168201806040525081019061071a91906112c0565b1015610752576040517f8f3d86bc00000000000000000000000000000000000000000000000000000000815260040160405180910390fd5b816001800160008282546107669190611341565b909155505060018054829190600090610780908490611341565b90915550506040517f23b872dd000000000000000000000000000000000000000000000000000000008152336004820152306024820152604481018290527f000000000000000000000000000000000000000000000000000000000000000073ffffffffffffffffffffffffffffffffffffffff16906323b872dd906064016020604051808303816000875af115801561081e573d6000803e3d6000fd5b505050506040513d601f19601f8201168201806040525081019061084291906112d9565b506040517f40c10f19000000000000000000000000000000000000000000000000000000008152336004820152602481018390527f000000000000000000000000000000000000000000000000000000000000000073ffffffffffffffffffffffffffffffffffffffff16906340c10f1990604401600060405180830381600087803b1580156108d157600080fd5b505af11580156108e5573d6000803e3d6000fd5b505050505050565b6108f5610bb4565b61092b576040517f90f86ab000000000000000000000000000000000000000000000000000000000815260040160405180910390fd5b6002546001546040517fdd62ed3e00000000000000000000000000000000000000000000000000000000815233600482015230602482015282907f000000000000000000000000000000000000000000000000000000000000000073ffffffffffffffffffffffffffffffffffffffff169063dd62ed3e90604401602060405180830381865afa1580156109c3573d6000803e3d6000fd5b505050506040513d601f19601f820116820180604052508101906109e791906112c0565b1015610a1f576040517f8f3d86bc00000000000000000000000000000000000000000000000000000000815260040160405180910390fd5b6040517f79cc6790000000000000000000000000000000000000000000000000000000008152336004820152602481018390527f000000000000000000000000000000000000000000000000000000000000000073ffffffffffffffffffffffffffffffffffffffff16906379cc679090604401610535565b600082815260208190526040902060010154610ab381610d2b565b610abd8383610d38565b505050565b73ffffffffffffffffffffffffffffffffffffffff81163314610b6c576040517f08c379a000000000000000000000000000000000000000000000000000000000815260206004820152602f60248201527f416363657373436f6e74726f6c3a2063616e206f6e6c792072656e6f756e636560448201527f20726f6c657320666f722073656c66000000000000000000000000000000000060648201526084015b60405180910390fd5b610b768282610e28565b5050565b60015460025460009190610b8d90610cfe565b600154610b9a919061132a565b610ba49190611359565b610baf906064611394565b905090565b600080610bbf610b7a565b60035490915060ff16811015610bd757600191505090565b600091505090565b60007f000000000000000000000000000000000000000000000000000000000000000073ffffffffffffffffffffffffffffffffffffffff1663feaf968c6040518163ffffffff1660e01b815260040160a060405180830381865afa158015610c4c573d6000803e3d6000fd5b505050506040513d601f19601f82011682018060405250810190610c7091906113f0565b5091949350505050565b7f547d010821a032e6882de3d0b5a6208aa0b1b327b114249bfbf285c283bc4c85610ca481610d2b565b50600380547fffffffffffffffffffffffffffffffffffffffffffffffffffffffffffffff001660ff92909216919091179055565b600082815260208190526040902060010154610cf481610d2b565b610abd8383610e28565b600080610d09610bdf565b90506305f5e100610d1a8285611394565b610d249190611359565b9392505050565b610d358133610edf565b50565b60008281526020818152604080832073ffffffffffffffffffffffffffffffffffffffff8516845290915290205460ff16610b765760008281526020818152604080832073ffffffffffffffffffffffffffffffffffffffff85168452909152902080547fffffffffffffffffffffffffffffffffffffffffffffffffffffffffffffff00166001179055610dca3390565b73ffffffffffffffffffffffffffffffffffffffff168173ffffffffffffffffffffffffffffffffffffffff16837f2f8788117e7eff1d82e926ec794901d17c78024a50270940304540a733656f0d60405160405180910390a45050565b60008281526020818152604080832073ffffffffffffffffffffffffffffffffffffffff8516845290915290205460ff1615610b765760008281526020818152604080832073ffffffffffffffffffffffffffffffffffffffff8516808552925280832080547fffffffffffffffffffffffffffffffffffffffffffffffffffffffffffffff0016905551339285917ff6391f5c32d9c69d2a47ea670b442974b53935d1edc7fd64eb21e047a839171b9190a45050565b60008281526020818152604080832073ffffffffffffffffffffffffffffffffffffffff8516845290915290205460ff16610b7657610f1d81610f97565b610f28836020610fb6565b604051602001610f39929190611470565b604080517fffffffffffffffffffffffffffffffffffffffffffffffffffffffffffffffe0818403018152908290527f08c379a0000000000000000000000000000000000000000000000000000000008252610b63916004016114f1565b60606103be73ffffffffffffffffffffffffffffffffffffffff831660145b60606000610fc5836002611394565b610fd0906002611341565b67ffffffffffffffff811115610fe857610fe8611542565b6040519080825280601f01601f191660200182016040528015611012576020820181803683370190505b5090507f30000000000000000000000000000000000000000000000000000000000000008160008151811061104957611049611571565b60200101907effffffffffffffffffffffffffffffffffffffffffffffffffffffffffffff1916908160001a9053507f7800000000000000000000000000000000000000000000000000000000000000816001815181106110ac576110ac611571565b60200101907effffffffffffffffffffffffffffffffffffffffffffffffffffffffffffff1916908160001a90535060006110e8846002611394565b6110f3906001611341565b90505b6001811115611190577f303132333435363738396162636465660000000000000000000000000000000085600f166010811061113457611134611571565b1a60f81b82828151811061114a5761114a611571565b60200101907effffffffffffffffffffffffffffffffffffffffffffffffffffffffffffff1916908160001a90535060049490941c93611189816115a0565b90506110f6565b508315610d24576040517f08c379a000000000000000000000000000000000000000000000000000000000815260206004820181905260248201527f537472696e67733a20686578206c656e67746820696e73756666696369656e746044820152606401610b63565b60006020828403121561120b57600080fd5b81357fffffffff0000000000000000000000000000000000000000000000000000000081168114610d2457600080fd5b60006020828403121561124d57600080fd5b5035919050565b6000806040838503121561126757600080fd5b82359150602083013573ffffffffffffffffffffffffffffffffffffffff8116811461129257600080fd5b809150509250929050565b6000602082840312156112af57600080fd5b813560ff81168114610d2457600080fd5b6000602082840312156112d257600080fd5b5051919050565b6000602082840312156112eb57600080fd5b81518015158114610d2457600080fd5b7f4e487b7100000000000000000000000000000000000000000000000000000000600052601160045260246000fd5b60008282101561133c5761133c6112fb565b500390565b60008219821115611354576113546112fb565b500190565b60008261138f577f4e487b7100000000000000000000000000000000000000000000000000000000600052601260045260246000fd5b500490565b6000817fffffffffffffffffffffffffffffffffffffffffffffffffffffffffffffffff04831182151516156113cc576113cc6112fb565b500290565b805169ffffffffffffffffffff811681146113eb57600080fd5b919050565b600080600080600060a0868803121561140857600080fd5b611411866113d1565b9450602086015193506040860151925060608601519150611434608087016113d1565b90509295509295909350565b60005b8381101561145b578181015183820152602001611443565b8381111561146a576000848401525b50505050565b7f416363657373436f6e74726f6c3a206163636f756e74200000000000000000008152600083516114a8816017850160208801611440565b7f206973206d697373696e6720726f6c652000000000000000000000000000000060179184019182015283516114e5816028840160208801611440565b01602801949350505050565b6020815260008251806020840152611510816040850160208701611440565b601f017fffffffffffffffffffffffffffffffffffffffffffffffffffffffffffffffe0169190910160400192915050565b7f4e487b7100000000000000000000000000000000000000000000000000000000600052604160045260246000fd5b7f4e487b7100000000000000000000000000000000000000000000000000000000600052603260045260246000fd5b6000816115af576115af6112fb565b507fffffffffffffffffffffffffffffffffffffffffffffffffffffffffffffffff019056fea264697066735822122003fc5ecce27b742bd1fe7bef8116485cd0b5cccbbbdb591749a060748598615164736f6c634300080a0033",
  "devdoc": {
    "kind": "dev",
    "methods": {
      "getRoleAdmin(bytes32)": {
        "details": "Returns the admin role that controls `role`. See {grantRole} and {revokeRole}. To change a role's admin, use {_setRoleAdmin}."
      },
      "grantRole(bytes32,address)": {
        "details": "Grants `role` to `account`. If `account` had not been already granted `role`, emits a {RoleGranted} event. Requirements: - the caller must have ``role``'s admin role. May emit a {RoleGranted} event."
      },
      "hasRole(bytes32,address)": {
        "details": "Returns `true` if `account` has been granted `role`."
      },
      "mintPTRY(uint256)": {
        "details": "Mint pTRY token",
        "params": {
          "amount": "requested amount to mint"
        }
      },
      "renounceRole(bytes32,address)": {
        "details": "Revokes `role` from the calling account. Roles are often managed via {grantRole} and {revokeRole}: this function's purpose is to provide a mechanism for accounts to lose their privileges if they are compromised (such as when a trusted device is misplaced). If the calling account had been revoked `role`, emits a {RoleRevoked} event. Requirements: - the caller must be `account`. May emit a {RoleRevoked} event."
      },
      "revokeRole(bytes32,address)": {
        "details": "Revokes `role` from `account`. If `account` had been granted `role`, emits a {RoleRevoked} event. Requirements: - the caller must have ``role``'s admin role. May emit a {RoleRevoked} event."
      },
      "supportsInterface(bytes4)": {
        "details": "See {IERC165-supportsInterface}."
      }
    },
    "version": 1
  },
  "userdoc": {
    "kind": "user",
    "methods": {
      "mintPTRY(uint256)": {
        "notice": "Only acceptable collateral is DAI"
      }
    },
    "version": 1
  },
  "storageLayout": {
    "storage": [
      {
        "astId": 70,
        "contract": "contracts/LendingPool.sol:LendingPool",
        "label": "_roles",
        "offset": 0,
        "slot": "0",
        "type": "t_mapping(t_bytes32,t_struct(RoleData)65_storage)"
      },
      {
        "astId": 3258,
        "contract": "contracts/LendingPool.sol:LendingPool",
        "label": "vault",
        "offset": 0,
        "slot": "1",
        "type": "t_struct(Vault)3255_storage"
      },
      {
        "astId": 3260,
        "contract": "contracts/LendingPool.sol:LendingPool",
        "label": "s_minCollateralRatio",
        "offset": 0,
        "slot": "3",
        "type": "t_uint8"
      }
    ],
    "types": {
      "t_address": {
        "encoding": "inplace",
        "label": "address",
        "numberOfBytes": "20"
      },
      "t_bool": {
        "encoding": "inplace",
        "label": "bool",
        "numberOfBytes": "1"
      },
      "t_bytes32": {
        "encoding": "inplace",
        "label": "bytes32",
        "numberOfBytes": "32"
      },
      "t_mapping(t_address,t_bool)": {
        "encoding": "mapping",
        "key": "t_address",
        "label": "mapping(address => bool)",
        "numberOfBytes": "32",
        "value": "t_bool"
      },
      "t_mapping(t_bytes32,t_struct(RoleData)65_storage)": {
        "encoding": "mapping",
        "key": "t_bytes32",
        "label": "mapping(bytes32 => struct AccessControl.RoleData)",
        "numberOfBytes": "32",
        "value": "t_struct(RoleData)65_storage"
      },
      "t_struct(RoleData)65_storage": {
        "encoding": "inplace",
        "label": "struct AccessControl.RoleData",
        "members": [
          {
            "astId": 62,
            "contract": "contracts/LendingPool.sol:LendingPool",
            "label": "members",
            "offset": 0,
            "slot": "0",
            "type": "t_mapping(t_address,t_bool)"
          },
          {
            "astId": 64,
            "contract": "contracts/LendingPool.sol:LendingPool",
            "label": "adminRole",
            "offset": 0,
            "slot": "1",
            "type": "t_bytes32"
          }
        ],
        "numberOfBytes": "64"
      },
      "t_struct(Vault)3255_storage": {
        "encoding": "inplace",
        "label": "struct LendingPool.Vault",
        "members": [
          {
            "astId": 3252,
            "contract": "contracts/LendingPool.sol:LendingPool",
            "label": "margin",
            "offset": 0,
            "slot": "0",
            "type": "t_uint256"
          },
          {
            "astId": 3254,
            "contract": "contracts/LendingPool.sol:LendingPool",
            "label": "dept",
            "offset": 0,
            "slot": "1",
            "type": "t_uint256"
          }
        ],
        "numberOfBytes": "64"
      },
      "t_uint256": {
        "encoding": "inplace",
        "label": "uint256",
        "numberOfBytes": "32"
      },
      "t_uint8": {
        "encoding": "inplace",
        "label": "uint8",
        "numberOfBytes": "1"
      }
    }
  }
}