{
  "address": "0x6E56343E45190D2C467f7e828dbDA472D431a199",
  "abi": [
    {
      "inputs": [],
      "stateMutability": "nonpayable",
      "type": "constructor"
    },
    {
      "inputs": [],
      "name": "latestRoundData",
      "outputs": [
        {
          "internalType": "uint80",
          "name": "",
          "type": "uint80"
        },
        {
          "internalType": "int256",
          "name": "",
          "type": "int256"
        },
        {
          "internalType": "uint256",
          "name": "",
          "type": "uint256"
        },
        {
          "internalType": "uint256",
          "name": "",
          "type": "uint256"
        },
        {
          "internalType": "uint80",
          "name": "",
          "type": "uint80"
        }
      ],
      "stateMutability": "view",
      "type": "function"
    },
    {
      "inputs": [],
      "name": "s_answer",
      "outputs": [
        {
          "internalType": "int256",
          "name": "",
          "type": "int256"
        }
      ],
      "stateMutability": "view",
      "type": "function"
    },
    {
      "inputs": [
        {
          "internalType": "int256",
          "name": "answer",
          "type": "int256"
        }
      ],
      "name": "setLatestAnswer",
      "outputs": [],
      "stateMutability": "nonpayable",
      "type": "function"
    }
  ],
  "transactionHash": "0x15a51710f2f9ed4f0259dd2c0d828251e5ab99fdba90f92b7339db30a1626b83",
  "args": [],
  "numDeployments": 1,
  "solcInputHash": "23efcfb3ff37672af8fa7dd4ae15c129",
  "bytecode": "0x608060405234801561001057600080fd5b5061001d6251cb3c600055565b60ea8061002b6000396000f3fe6080604052348015600f57600080fd5b5060043610603c5760003560e01c806304ea97b0146041578063305da2db146053578063feaf968c14606e575b600080fd5b6051604c366004609c565b600055565b005b605b60005481565b6040519081526020015b60405180910390f35b60008054604080518381526020810192909252810182905260608101829052608081019190915260a0016065565b60006020828403121560ad57600080fd5b503591905056fea2646970667358221220ee31c150ddbba5da15f143d3528a5d5f053ec343d7b2750272c0290b2585eaa064736f6c634300080a0033",
  "devdoc": {
    "kind": "dev",
    "methods": {},
    "version": 1
  },
  "userdoc": {
    "kind": "user",
    "methods": {},
    "version": 1
  },
  "storageLayout": {
    "storage": [
      {
        "astId": 3,
        "contract": "contracts/test/MockAggregator.sol:MockAggregator",
        "label": "s_answer",
        "offset": 0,
        "slot": "0",
        "type": "t_int256"
      }
    ],
    "types": {
      "t_int256": {
        "encoding": "inplace",
        "label": "int256",
        "numberOfBytes": "32"
      }
    }
  }
}